:020000020000FC
:100000002498259A219A02EA009380000AE100933D
:10001000810000E0F89400938500009384007894B8
:1000200000E41CE9F894109387000093860078940C
:1000300004E813E0F8941093890000938800789402
:100040001C9B0E942400F4CF0E94270008952D9A43
:1000500004E51BE0F89410938900009388007894DD
:100060002F938F939F9328EC8EE39CE90197F1F7F0
:100070002A95D1F700009F918F912F912D98089587
:00000001FF
